{
    "contractName": "MultiSig",
    "abi": [
        {
            "inputs": [
                {
                    "internalType": "address[]",
                    "name": "holders",
                    "type": "address[]"
                }
            ],
            "stateMutability": "nonpayable",
            "type": "constructor"
        },
        {
            "anonymous": false,
            "inputs": [
                {
                    "indexed": true,
                    "internalType": "address",
                    "name": "account",
                    "type": "address"
                }
            ],
            "name": "HolderAdded",
            "type": "event"
        },
        {
            "anonymous": false,
            "inputs": [
                {
                    "indexed": false,
                    "internalType": "address",
                    "name": "",
                    "type": "address"
                },
                {
                    "indexed": false,
                    "internalType": "uint256",
                    "name": "",
                    "type": "uint256"
                }
            ],
            "name": "Received",
            "type": "event"
        },
        {
            "inputs": [
                {
                    "internalType": "uint256",
                    "name": "baseAmount",
                    "type": "uint256"
                },
                {
                    "internalType": "address",
                    "name": "coinAddress",
                    "type": "address"
                },
                {
                    "internalType": "address",
                    "name": "sendTo",
                    "type": "address"
                }
            ],
            "name": "completeTransfer",
            "outputs": [
                {
                    "internalType": "bool",
                    "name": "",
                    "type": "bool"
                }
            ],
            "stateMutability": "nonpayable",
            "type": "function"
        },
        {
            "inputs": [
                {
                    "internalType": "uint256",
                    "name": "baseAmount",
                    "type": "uint256"
                },
                {
                    "internalType": "address",
                    "name": "coinAddress",
                    "type": "address"
                },
                {
                    "internalType": "address",
                    "name": "sendTo",
                    "type": "address"
                }
            ],
            "name": "initiateTransfer",
            "outputs": [],
            "stateMutability": "nonpayable",
            "type": "function"
        },
        {
            "inputs": [
                {
                    "internalType": "address",
                    "name": "account",
                    "type": "address"
                }
            ],
            "name": "isHolder",
            "outputs": [
                {
                    "internalType": "bool",
                    "name": "",
                    "type": "bool"
                }
            ],
            "stateMutability": "view",
            "type": "function"
        },
        {
            "stateMutability": "payable",
            "type": "receive"
        }
    ],
    "bytecode": "60806040523480156200001157600080fd5b5060405162000db338038062000db38339810160408190526200003491620003ed565b60005b81518110156200023a576000600360008484815181106200006857634e487b7160e01b600052603260045260246000fd5b60200260200101516001600160a01b03166001600160a01b0316815260200190815260200160002060000181905550600060036000848481518110620000be57634e487b7160e01b600052603260045260246000fd5b60200260200101516001600160a01b03166001600160a01b0316815260200190815260200160002060010181905550738b1a1af63bb9b3730f62c56bda272bcc69df4cc7600360008484815181106200012757634e487b7160e01b600052603260045260246000fd5b60200260200101516001600160a01b03166001600160a01b0316815260200190815260200160002060020160006101000a8154816001600160a01b0302191690836001600160a01b031602179055506000600360008484815181106200019d57634e487b7160e01b600052603260045260246000fd5b60200260200101516001600160a01b03166001600160a01b0316815260200190815260200160002060030160006101000a8154816001600160a01b0302191690836001600160a01b03160217905550620002258282815181106200021157634e487b7160e01b600052603260045260246000fd5b60200260200101516200025860201b60201c565b80620002318162000534565b91505062000037565b508051620002509060029060208401906200034f565b505062000572565b62000273816000620002aa60201b620003541790919060201c565b6040516001600160a01b038216907f9894d458cf29e8bc4eb7e591bac54b31dc90125dfa852474419972ab4347dd1290600090a250565b620002b6828262000304565b15620002df5760405162461bcd60e51b8152600401620002d690620004bb565b60405180910390fd5b6001600160a01b0316600090815260209190915260409020805460ff19166001179055565b60006001600160a01b0382166200032f5760405162461bcd60e51b8152600401620002d690620004f2565b506001600160a01b03166000908152602091909152604090205460ff1690565b828054828255906000526020600020908101928215620003a7579160200282015b82811115620003a757825182546001600160a01b0319166001600160a01b0390911617825560209092019160019091019062000370565b50620003b5929150620003b9565b5090565b5b80821115620003b55760008155600101620003ba565b80516001600160a01b0381168114620003e857600080fd5b919050565b6000602080838503121562000400578182fd5b82516001600160401b038082111562000417578384fd5b818501915085601f8301126200042b578384fd5b8151818111156200044057620004406200055c565b838102604051858282010181811085821117156200046257620004626200055c565b604052828152858101935084860182860187018a101562000481578788fd5b8795505b83861015620004ae576200049981620003d0565b85526001959095019493860193860162000485565b5098975050505050505050565b6020808252601f908201527f526f6c65733a206163636f756e7420616c72656164792068617320726f6c6500604082015260600190565b60208082526022908201527f526f6c65733a206163636f756e7420697320746865207a65726f206164647265604082015261737360f01b606082015260800190565b60006000198214156200055557634e487b7160e01b81526011600452602481fd5b5060010190565b634e487b7160e01b600052604160045260246000fd5b61083180620005826000396000f3fe6080604052600436106100385760003560e01c8063a72d8db914610084578063d4d7b19a146100ba578063f71a47d8146100da5761007f565b3661007f577f88a5966d370b9919b20f3e2c13ff65706f196a4e32cc2c12bf57088f885258746100666100fc565b346040516100759291906106c6565b60405180910390a1005b600080fd5b34801561009057600080fd5b506100a461009f36600461068b565b610100565b6040516100b191906106df565b60405180910390f35b3480156100c657600080fd5b506100a46100d5366004610651565b610308565b3480156100e657600080fd5b506100fa6100f536600461068b565b61031c565b005b3390565b600061010d6100d56100fc565b6101325760405162461bcd60e51b815260040161012990610721565b60405180910390fd5b4261013f858583866103a0565b6000805b6002548110156102f9576102586101a684600360006002868154811061017957634e487b7160e01b600052603260045260246000fd5b60009182526020808320909101546001600160a01b031683528201929092526040019020600101546104d5565b10156102e75760036000600283815481106101d157634e487b7160e01b600052603260045260246000fd5b60009182526020808320909101546001600160a01b031683528201929092526040019020548714156102e757600360006002838154811061022257634e487b7160e01b600052603260045260246000fd5b60009182526020808320909101546001600160a01b039081168452908301939093526040909101902060020154878216911614156102e757600360006002838154811061027f57634e487b7160e01b600052603260045260246000fd5b60009182526020808320909101546001600160a01b039081168452908301939093526040909101902060030154868216911614156102e757816102c1816107ca565b60025490935083111590506102e7576102db8787876104e1565b60019350505050610301565b806102f1816107ca565b915050610143565b506000925050505b9392505050565b600061031481836105ca565b90505b919050565b6103276100d56100fc565b6103435760405162461bcd60e51b815260040161012990610721565b61034f838342846103a0565b505050565b61035e82826105ca565b1561037b5760405162461bcd60e51b8152600401610129906106ea565b6001600160a01b0316600090815260209190915260409020805460ff19166001179055565b600084116103ad57600080fd5b6103b683610612565b6103bf57600080fd5b6001600160a01b0381166103d257600080fd5b83600360006103df6100fc565b6001600160a01b03166001600160a01b031681526020019081526020016000206000018190555082600360006104136100fc565b6001600160a01b03166001600160a01b0316815260200190815260200160002060020160006101000a8154816001600160a01b0302191690836001600160a01b0316021790555081600360006104676100fc565b6001600160a01b03166001600160a01b0316815260200190815260200160002060010181905550806003600061049b6100fc565b6001600160a01b039081168252602082019290925260400160002060030180546001600160a01b0319169290911691909117905550505050565b600061030182846107b3565b6001600160a01b03821661052b576040516001600160a01b0382169084156108fc029085906000818181858888f19350505050158015610525573d6000803e3d6000fd5b5061034f565b600180546001600160a01b0319166001600160a01b03848116919091179182905560405163a9059cbb60e01b815291169063a9059cbb9061057290849087906004016106c6565b602060405180830381600087803b15801561058c57600080fd5b505af11580156105a0573d6000803e3d6000fd5b505050506040513d601f19601f820116820180604052508101906105c4919061066b565b50505050565b60006001600160a01b0382166105f25760405162461bcd60e51b815260040161012990610771565b506001600160a01b03166000908152602091909152604090205460ff1690565b6000806001600160a01b0383166106285761062c565b50813b5b63ffffffff16151592915050565b80356001600160a01b038116811461031757600080fd5b600060208284031215610662578081fd5b6103018261063a565b60006020828403121561067c578081fd5b81518015158114610301578182fd5b60008060006060848603121561069f578182fd5b833592506106af6020850161063a565b91506106bd6040850161063a565b90509250925092565b6001600160a01b03929092168252602082015260400190565b901515815260200190565b6020808252601f908201527f526f6c65733a206163636f756e7420616c72656164792068617320726f6c6500604082015260600190565b60208082526030908201527f486f6c646572526f6c653a2063616c6c657220646f6573206e6f74206861766560408201526f2074686520486f6c64657220726f6c6560801b606082015260800190565b60208082526022908201527f526f6c65733a206163636f756e7420697320746865207a65726f206164647265604082015261737360f01b606082015260800190565b6000828210156107c5576107c56107e5565b500390565b60006000198214156107de576107de6107e5565b5060010190565b634e487b7160e01b600052601160045260246000fdfea2646970667358221220c939e4f1b295ae868762dca76b22a6cbd5a546b95a0f508da4aaac315fc829b664736f6c63430008000033",
    "sourcePath": "/Users/christophercruttenden/Desktop/delete/HolderRole.sol",
    "compiler": {
        "name": "solc",
        "version": "0.8.0+commit.c7dfd78e"
    },
    "functionHashes": {
        "completeTransfer(uint256,address,address)": "a72d8db9",
        "initiateTransfer(uint256,address,address)": "f71a47d8",
        "isHolder(address)": "d4d7b19a"
    },
    "gasEstimates": {
        "creation": {
            "codeDepositCost": "419400",
            "executionCost": "infinite",
            "totalCost": "infinite"
        },
        "external": {
            "completeTransfer(uint256,address,address)": "infinite",
            "initiateTransfer(uint256,address,address)": "infinite",
            "isHolder(address)": "infinite"
        },
        "internal": {
            "_doIt(uint256,address,address)": "infinite",
            "_initiateTransfer(uint256,address,uint256,address)": "infinite",
            "_isCoin(address)": "778",
            "_seeTime(uint256,uint256)": "104"
        }
    }
}