{
    "contractName": "ERC20_1L",
    "abi": [
        {
            "inputs": [
                {
                    "internalType": "string",
                    "name": "name_",
                    "type": "string"
                },
                {
                    "internalType": "string",
                    "name": "symbol_",
                    "type": "string"
                },
                {
                    "internalType": "uint8",
                    "name": "decimals_",
                    "type": "uint8"
                }
            ],
            "stateMutability": "nonpayable",
            "type": "constructor"
        },
        {
            "anonymous": false,
            "inputs": [
                {
                    "indexed": true,
                    "internalType": "address",
                    "name": "from",
                    "type": "address"
                },
                {
                    "indexed": true,
                    "internalType": "address",
                    "name": "to",
                    "type": "address"
                },
                {
                    "indexed": false,
                    "internalType": "uint256",
                    "name": "value",
                    "type": "uint256"
                }
            ],
            "name": "Transfer",
            "type": "event"
        },
        {
            "inputs": [
                {
                    "internalType": "address",
                    "name": "account",
                    "type": "address"
                }
            ],
            "name": "balanceOf",
            "outputs": [
                {
                    "internalType": "uint256",
                    "name": "",
                    "type": "uint256"
                }
            ],
            "stateMutability": "view",
            "type": "function"
        },
        {
            "inputs": [],
            "name": "decimals",
            "outputs": [
                {
                    "internalType": "uint8",
                    "name": "",
                    "type": "uint8"
                }
            ],
            "stateMutability": "view",
            "type": "function"
        },
        {
            "inputs": [
                {
                    "internalType": "address",
                    "name": "_trustee",
                    "type": "address"
                }
            ],
            "name": "isTrustee",
            "outputs": [
                {
                    "internalType": "bool",
                    "name": "",
                    "type": "bool"
                }
            ],
            "stateMutability": "view",
            "type": "function"
        },
        {
            "inputs": [],
            "name": "manager",
            "outputs": [
                {
                    "internalType": "address",
                    "name": "",
                    "type": "address"
                }
            ],
            "stateMutability": "view",
            "type": "function"
        },
        {
            "inputs": [],
            "name": "name",
            "outputs": [
                {
                    "internalType": "string",
                    "name": "",
                    "type": "string"
                }
            ],
            "stateMutability": "view",
            "type": "function"
        },
        {
            "inputs": [],
            "name": "symbol",
            "outputs": [
                {
                    "internalType": "string",
                    "name": "",
                    "type": "string"
                }
            ],
            "stateMutability": "view",
            "type": "function"
        },
        {
            "inputs": [],
            "name": "totalSupply",
            "outputs": [
                {
                    "internalType": "uint256",
                    "name": "",
                    "type": "uint256"
                }
            ],
            "stateMutability": "view",
            "type": "function"
        },
        {
            "inputs": [
                {
                    "internalType": "address",
                    "name": "recipient",
                    "type": "address"
                },
                {
                    "internalType": "uint256",
                    "name": "amount",
                    "type": "uint256"
                }
            ],
            "name": "transfer",
            "outputs": [
                {
                    "internalType": "bool",
                    "name": "",
                    "type": "bool"
                }
            ],
            "stateMutability": "nonpayable",
            "type": "function"
        }
    ],
    "bytecode": "60806040523480156200001157600080fd5b50604051620009443803806200094483398101604081905262000034916200022f565b825162000049906004906020860190620000de565b5081516200005f906005906020850190620000de565b506006805460ff191660ff831617905560018060006200007e620000da565b6001600160a01b031681526020810191909152604001600020805460ff1916911515919091179055620000b0620000da565b600280546001600160a01b0319166001600160a01b03929092169190911790555062000303915050565b3390565b828054620000ec90620002b0565b90600052602060002090601f0160209004810192826200011057600085556200015b565b82601f106200012b57805160ff19168380011785556200015b565b828001600101855582156200015b579182015b828111156200015b5782518255916020019190600101906200013e565b50620001699291506200016d565b5090565b5b808211156200016957600081556001016200016e565b600082601f83011262000195578081fd5b81516001600160401b0380821115620001b257620001b2620002ed565b6040516020601f8401601f1916820181018381118382101715620001da57620001da620002ed565b6040528382528584018101871015620001f1578485fd5b8492505b83831015620002145785830181015182840182015291820191620001f5565b838311156200022557848185840101525b5095945050505050565b60008060006060848603121562000244578283fd5b83516001600160401b03808211156200025b578485fd5b620002698783880162000184565b945060208601519150808211156200027f578384fd5b506200028e8682870162000184565b925050604084015160ff81168114620002a5578182fd5b809150509250925092565b600281046001821680620002c557607f821691505b60208210811415620002e757634e487b7160e01b600052602260045260246000fd5b50919050565b634e487b7160e01b600052604160045260246000fd5b61063180620003136000396000f3fe608060405234801561001057600080fd5b50600436106100885760003560e01c806370a082311161005b57806370a08231146100ea57806395d89b41146100fd578063a9059cbb14610105578063c784cd171461012557610088565b806306fdde031461008d57806318160ddd146100ab578063313ce567146100c0578063481c6a75146100d5575b600080fd5b610095610138565b6040516100a29190610471565b60405180910390f35b6100b36101ca565b6040516100a2919061053e565b6100c86101d0565b6040516100a29190610547565b6100dd6101d9565b6040516100a29190610452565b6100b36100f836600461040f565b6101e8565b610095610207565b610118610113366004610429565b610216565b6040516100a29190610466565b61011861013336600461040f565b61022b565b60606004805461014790610584565b80601f016020809104026020016040519081016040528092919081815260200182805461017390610584565b80156101c05780601f10610195576101008083540402835291602001916101c0565b820191906000526020600020905b8154815290600101906020018083116101a357829003601f168201915b5050505050905090565b60035490565b60065460ff1690565b6002546001600160a01b031690565b6001600160a01b0381166000908152602081905260409020545b919050565b60606005805461014790610584565b60006102228383610249565b50600192915050565b6001600160a01b031660009081526001602052604090205460ff1690565b6001600160a01b0382166102785760405162461bcd60e51b815260040161026f906104c4565b60405180910390fd5b61028a61028361037f565b8383610383565b6102d3816040518060600160405280602681526020016105d6602691396000806102b261037f565b6001600160a01b031681526020810191909152604001600020549190610388565b6000806102de61037f565b6001600160a01b0390811682526020808301939093526040918201600090812094909455851683529082905290205461031790826103c2565b6001600160a01b03831660008181526020819052604090209190915561033b61037f565b6001600160a01b03167fddf252ad1be2c89b69c2b068fc378daa952ba7f163c4a11628f55a4df523b3ef83604051610373919061053e565b60405180910390a35050565b3390565b505050565b600081848411156103ac5760405162461bcd60e51b815260040161026f9190610471565b5060006103b9848661056d565b95945050505050565b6000806103cf8385610555565b9050838110156103f15760405162461bcd60e51b815260040161026f90610507565b9392505050565b80356001600160a01b038116811461020257600080fd5b600060208284031215610420578081fd5b6103f1826103f8565b6000806040838503121561043b578081fd5b610444836103f8565b946020939093013593505050565b6001600160a01b0391909116815260200190565b901515815260200190565b6000602080835283518082850152825b8181101561049d57858101830151858201604001528201610481565b818111156104ae5783604083870101525b50601f01601f1916929092016040019392505050565b60208082526023908201527f45524332303a207472616e7366657220746f20746865207a65726f206164647260408201526265737360e81b606082015260800190565b6020808252601b908201527f536166654d6174683a206164646974696f6e206f766572666c6f770000000000604082015260600190565b90815260200190565b60ff91909116815260200190565b60008219821115610568576105686105bf565b500190565b60008282101561057f5761057f6105bf565b500390565b60028104600182168061059857607f821691505b602082108114156105b957634e487b7160e01b600052602260045260246000fd5b50919050565b634e487b7160e01b600052601160045260246000fdfe45524332303a207472616e7366657220616d6f756e7420657863656564732062616c616e6365a2646970667358221220470c963a9df0010b3f83b3f899d00de707c6b20f1d3d3366a5d8d7f8616c3d0f64736f6c63430008000033",
    "sourcePath": "/Users/christophercruttenden/openzeppelin-contracts/contracts/token/ERC20/ERC20_1Legit.sol",
    "compiler": {
        "name": "solc",
        "version": "0.8.0+commit.c7dfd78e"
    },
    "functionHashes": {
        "balanceOf(address)": "70a08231",
        "decimals()": "313ce567",
        "isTrustee(address)": "c784cd17",
        "manager()": "481c6a75",
        "name()": "06fdde03",
        "symbol()": "95d89b41",
        "totalSupply()": "18160ddd",
        "transfer(address,uint256)": "a9059cbb"
    },
    "gasEstimates": {
        "creation": {
            "codeDepositCost": "317000",
            "executionCost": "infinite",
            "totalCost": "infinite"
        },
        "external": {
            "balanceOf(address)": "infinite",
            "decimals()": "1091",
            "isTrustee(address)": "1348",
            "manager()": "1137",
            "name()": "infinite",
            "symbol()": "infinite",
            "totalSupply()": "1051",
            "transfer(address,uint256)": "infinite"
        },
        "internal": {
            "_addTrustee(address)": "infinite",
            "_approve(uint8)": "infinite",
            "_beforeTokenTransfer(address,address,uint256)": "15",
            "_burn(uint256)": "infinite",
            "_changeManager(address)": "infinite",
            "_mint(address,uint256)": "infinite",
            "_removeTrustee(address)": "infinite",
            "_transfer(address,uint256)": "infinite"
        }
    }
}