{
    "contractName": "ERC20_1L",
    "abi": [
        {
            "inputs": [
                {
                    "internalType": "string",
                    "name": "name_",
                    "type": "string"
                },
                {
                    "internalType": "string",
                    "name": "symbol_",
                    "type": "string"
                },
                {
                    "internalType": "uint8",
                    "name": "decimals_",
                    "type": "uint8"
                }
            ],
            "stateMutability": "nonpayable",
            "type": "constructor"
        },
        {
            "anonymous": false,
            "inputs": [
                {
                    "indexed": true,
                    "internalType": "address",
                    "name": "from",
                    "type": "address"
                },
                {
                    "indexed": true,
                    "internalType": "address",
                    "name": "to",
                    "type": "address"
                },
                {
                    "indexed": false,
                    "internalType": "uint256",
                    "name": "value",
                    "type": "uint256"
                }
            ],
            "name": "Transfer",
            "type": "event"
        },
        {
            "inputs": [
                {
                    "internalType": "address",
                    "name": "account",
                    "type": "address"
                }
            ],
            "name": "balanceOf",
            "outputs": [
                {
                    "internalType": "uint256",
                    "name": "",
                    "type": "uint256"
                }
            ],
            "stateMutability": "view",
            "type": "function"
        },
        {
            "inputs": [],
            "name": "decimals",
            "outputs": [
                {
                    "internalType": "uint8",
                    "name": "",
                    "type": "uint8"
                }
            ],
            "stateMutability": "view",
            "type": "function"
        },
        {
            "inputs": [],
            "name": "manager",
            "outputs": [
                {
                    "internalType": "address",
                    "name": "",
                    "type": "address"
                }
            ],
            "stateMutability": "view",
            "type": "function"
        },
        {
            "inputs": [],
            "name": "name",
            "outputs": [
                {
                    "internalType": "string",
                    "name": "",
                    "type": "string"
                }
            ],
            "stateMutability": "view",
            "type": "function"
        },
        {
            "inputs": [],
            "name": "symbol",
            "outputs": [
                {
                    "internalType": "string",
                    "name": "",
                    "type": "string"
                }
            ],
            "stateMutability": "view",
            "type": "function"
        },
        {
            "inputs": [],
            "name": "totalSupply",
            "outputs": [
                {
                    "internalType": "uint256",
                    "name": "",
                    "type": "uint256"
                }
            ],
            "stateMutability": "view",
            "type": "function"
        },
        {
            "inputs": [
                {
                    "internalType": "address",
                    "name": "recipient",
                    "type": "address"
                },
                {
                    "internalType": "uint256",
                    "name": "amount",
                    "type": "uint256"
                }
            ],
            "name": "transfer",
            "outputs": [
                {
                    "internalType": "bool",
                    "name": "",
                    "type": "bool"
                }
            ],
            "stateMutability": "nonpayable",
            "type": "function"
        }
    ],
    "bytecode": "608060405234801561001057600080fd5b50604051620008a5380380620008a5833981016040819052610031916101d6565b825161004490600390602086019061009d565b50815161005890600490602085019061009d565b506005805460ff191660ff8316179055610070610099565b600180546001600160a01b0319166001600160a01b0392909216919091179055506102a0915050565b3390565b8280546100a99061024f565b90600052602060002090601f0160209004810192826100cb5760008555610111565b82601f106100e457805160ff1916838001178555610111565b82800160010185558215610111579182015b828111156101115782518255916020019190600101906100f6565b5061011d929150610121565b5090565b5b8082111561011d5760008155600101610122565b600082601f830112610146578081fd5b81516001600160401b03808211156101605761016061028a565b6040516020601f8401601f19168201810183811183821017156101855761018561028a565b604052838252858401810187101561019b578485fd5b8492505b838310156101bc578583018101518284018201529182019161019f565b838311156101cc57848185840101525b5095945050505050565b6000806000606084860312156101ea578283fd5b83516001600160401b0380821115610200578485fd5b61020c87838801610136565b94506020860151915080821115610221578384fd5b5061022e86828701610136565b925050604084015160ff81168114610244578182fd5b809150509250925092565b60028104600182168061026357607f821691505b6020821081141561028457634e487b7160e01b600052602260045260246000fd5b50919050565b634e487b7160e01b600052604160045260246000fd5b6105f580620002b06000396000f3fe608060405234801561001057600080fd5b506004361061007d5760003560e01c8063481c6a751161005b578063481c6a75146100ca57806370a08231146100df57806395d89b41146100f2578063a9059cbb146100fa5761007d565b806306fdde031461008257806318160ddd146100a0578063313ce567146100b5575b600080fd5b61008a61011a565b6040516100979190610435565b60405180910390f35b6100a86101ac565b6040516100979190610502565b6100bd6101b2565b604051610097919061050b565b6100d26101bb565b6040516100979190610416565b6100a86100ed3660046103d3565b6101ca565b61008a6101e9565b61010d6101083660046103ed565b6101f8565b604051610097919061042a565b60606003805461012990610548565b80601f016020809104026020016040519081016040528092919081815260200182805461015590610548565b80156101a25780601f10610177576101008083540402835291602001916101a2565b820191906000526020600020905b81548152906001019060200180831161018557829003601f168201915b5050505050905090565b60025490565b60055460ff1690565b6001546001600160a01b031690565b6001600160a01b0381166000908152602081905260409020545b919050565b60606004805461012990610548565b6000610204838361020d565b50600192915050565b6001600160a01b03821661023c5760405162461bcd60e51b815260040161023390610488565b60405180910390fd5b61024e610247610343565b8383610347565b6102978160405180606001604052806026815260200161059a60269139600080610276610343565b6001600160a01b03168152602081019190915260400160002054919061034c565b6000806102a2610343565b6001600160a01b039081168252602080830193909352604091820160009081209490945585168352908290529020546102db9082610386565b6001600160a01b0383166000818152602081905260409020919091556102ff610343565b6001600160a01b03167fddf252ad1be2c89b69c2b068fc378daa952ba7f163c4a11628f55a4df523b3ef836040516103379190610502565b60405180910390a35050565b3390565b505050565b600081848411156103705760405162461bcd60e51b81526004016102339190610435565b50600061037d8486610531565b95945050505050565b6000806103938385610519565b9050838110156103b55760405162461bcd60e51b8152600401610233906104cb565b9392505050565b80356001600160a01b03811681146101e457600080fd5b6000602082840312156103e4578081fd5b6103b5826103bc565b600080604083850312156103ff578081fd5b610408836103bc565b946020939093013593505050565b6001600160a01b0391909116815260200190565b901515815260200190565b6000602080835283518082850152825b8181101561046157858101830151858201604001528201610445565b818111156104725783604083870101525b50601f01601f1916929092016040019392505050565b60208082526023908201527f45524332303a207472616e7366657220746f20746865207a65726f206164647260408201526265737360e81b606082015260800190565b6020808252601b908201527f536166654d6174683a206164646974696f6e206f766572666c6f770000000000604082015260600190565b90815260200190565b60ff91909116815260200190565b6000821982111561052c5761052c610583565b500190565b60008282101561054357610543610583565b500390565b60028104600182168061055c57607f821691505b6020821081141561057d57634e487b7160e01b600052602260045260246000fd5b50919050565b634e487b7160e01b600052601160045260246000fdfe45524332303a207472616e7366657220616d6f756e7420657863656564732062616c616e6365a264697066735822122030d2dd15dc3e60f9efcd8dea6e980f3e53af040c0b23214d40e2292bce20387264736f6c63430008000033",
    "sourcePath": "/Users/christophercruttenden/openzeppelin-contracts/contracts/token/ERC20/ERC20_1Legit.sol",
    "compiler": {
        "name": "solc",
        "version": "0.8.0+commit.c7dfd78e"
    },
    "functionHashes": {
        "balanceOf(address)": "70a08231",
        "decimals()": "313ce567",
        "manager()": "481c6a75",
        "name()": "06fdde03",
        "symbol()": "95d89b41",
        "totalSupply()": "18160ddd",
        "transfer(address,uint256)": "a9059cbb"
    },
    "gasEstimates": {
        "creation": {
            "codeDepositCost": "305000",
            "executionCost": "infinite",
            "totalCost": "infinite"
        },
        "external": {
            "balanceOf(address)": "infinite",
            "decimals()": "1091",
            "manager()": "1070",
            "name()": "infinite",
            "symbol()": "infinite",
            "totalSupply()": "1051",
            "transfer(address,uint256)": "infinite"
        },
        "internal": {
            "_approve(uint8)": "infinite",
            "_beforeTokenTransfer(address,address,uint256)": "15",
            "_burn(uint256)": "infinite",
            "_mint(address,uint256)": "infinite",
            "_transfer(address,uint256)": "infinite"
        }
    }
}