{
    "contractName": "ERC201",
    "abi": [
        {
            "inputs": [
                {
                    "internalType": "string",
                    "name": "name_",
                    "type": "string"
                },
                {
                    "internalType": "string",
                    "name": "symbol_",
                    "type": "string"
                },
                {
                    "internalType": "uint8",
                    "name": "decimals_",
                    "type": "uint8"
                }
            ],
            "stateMutability": "nonpayable",
            "type": "constructor"
        },
        {
            "anonymous": false,
            "inputs": [
                {
                    "indexed": true,
                    "internalType": "address",
                    "name": "from",
                    "type": "address"
                },
                {
                    "indexed": true,
                    "internalType": "address",
                    "name": "to",
                    "type": "address"
                },
                {
                    "indexed": false,
                    "internalType": "uint256",
                    "name": "value",
                    "type": "uint256"
                }
            ],
            "name": "Transfer",
            "type": "event"
        },
        {
            "inputs": [
                {
                    "internalType": "address",
                    "name": "account",
                    "type": "address"
                }
            ],
            "name": "balanceOf",
            "outputs": [
                {
                    "internalType": "uint256",
                    "name": "",
                    "type": "uint256"
                }
            ],
            "stateMutability": "view",
            "type": "function"
        },
        {
            "inputs": [],
            "name": "decimals",
            "outputs": [
                {
                    "internalType": "uint8",
                    "name": "",
                    "type": "uint8"
                }
            ],
            "stateMutability": "view",
            "type": "function"
        },
        {
            "inputs": [],
            "name": "name",
            "outputs": [
                {
                    "internalType": "string",
                    "name": "",
                    "type": "string"
                }
            ],
            "stateMutability": "view",
            "type": "function"
        },
        {
            "inputs": [],
            "name": "symbol",
            "outputs": [
                {
                    "internalType": "string",
                    "name": "",
                    "type": "string"
                }
            ],
            "stateMutability": "view",
            "type": "function"
        },
        {
            "inputs": [],
            "name": "totalSupply",
            "outputs": [
                {
                    "internalType": "uint256",
                    "name": "",
                    "type": "uint256"
                }
            ],
            "stateMutability": "view",
            "type": "function"
        },
        {
            "inputs": [
                {
                    "internalType": "address",
                    "name": "recipient",
                    "type": "address"
                },
                {
                    "internalType": "uint256",
                    "name": "amount",
                    "type": "uint256"
                }
            ],
            "name": "transfer",
            "outputs": [
                {
                    "internalType": "bool",
                    "name": "",
                    "type": "bool"
                }
            ],
            "stateMutability": "nonpayable",
            "type": "function"
        }
    ],
    "bytecode": "608060405234801561001057600080fd5b506040516107fe3803806107fe83398101604081905261002f916101ac565b8251610042906002906020860190610073565b508151610056906003906020850190610073565b506004805460ff191660ff92909216919091179055506102769050565b82805461007f90610225565b90600052602060002090601f0160209004810192826100a157600085556100e7565b82601f106100ba57805160ff19168380011785556100e7565b828001600101855582156100e7579182015b828111156100e75782518255916020019190600101906100cc565b506100f39291506100f7565b5090565b5b808211156100f357600081556001016100f8565b600082601f83011261011c578081fd5b81516001600160401b038082111561013657610136610260565b6040516020601f8401601f191682018101838111838210171561015b5761015b610260565b6040528382528584018101871015610171578485fd5b8492505b838310156101925785830181015182840182015291820191610175565b838311156101a257848185840101525b5095945050505050565b6000806000606084860312156101c0578283fd5b83516001600160401b03808211156101d6578485fd5b6101e28783880161010c565b945060208601519150808211156101f7578384fd5b506102048682870161010c565b925050604084015160ff8116811461021a578182fd5b809150509250925092565b60028104600182168061023957607f821691505b6020821081141561025a57634e487b7160e01b600052602260045260246000fd5b50919050565b634e487b7160e01b600052604160045260246000fd5b610579806102856000396000f3fe608060405234801561001057600080fd5b50600436106100625760003560e01c806306fdde031461006757806318160ddd14610085578063313ce5671461009a57806370a08231146100af57806395d89b41146100c2578063a9059cbb146100ca575b600080fd5b61006f6100ea565b60405161007c91906103b9565b60405180910390f35b61008d61017c565b60405161007c9190610486565b6100a2610182565b60405161007c919061048f565b61008d6100bd36600461036b565b61018b565b61006f6101aa565b6100dd6100d8366004610385565b6101b9565b60405161007c91906103ae565b6060600280546100f9906104cc565b80601f0160208091040260200160405190810160405280929190818152602001828054610125906104cc565b80156101725780601f1061014757610100808354040283529160200191610172565b820191906000526020600020905b81548152906001019060200180831161015557829003601f168201915b5050505050905090565b60015490565b60045460ff1690565b6001600160a01b0381166000908152602081905260409020545b919050565b6060600380546100f9906104cc565b60006101cd6101c66101d6565b84846101da565b50600192915050565b3390565b6001600160a01b0382166102095760405162461bcd60e51b81526004016102009061040c565b60405180910390fd5b6102148383836102df565b6102518160405180606001604052806026815260200161051e602691396001600160a01b03861660009081526020819052604090205491906102e4565b6001600160a01b038085166000908152602081905260408082209390935590841681522054610280908261031e565b6001600160a01b0380841660008181526020819052604090819020939093559151908516907fddf252ad1be2c89b69c2b068fc378daa952ba7f163c4a11628f55a4df523b3ef906102d2908590610486565b60405180910390a3505050565b505050565b600081848411156103085760405162461bcd60e51b815260040161020091906103b9565b50600061031584866104b5565b95945050505050565b60008061032b838561049d565b90508381101561034d5760405162461bcd60e51b81526004016102009061044f565b9392505050565b80356001600160a01b03811681146101a557600080fd5b60006020828403121561037c578081fd5b61034d82610354565b60008060408385031215610397578081fd5b6103a083610354565b946020939093013593505050565b901515815260200190565b6000602080835283518082850152825b818110156103e5578581018301518582016040015282016103c9565b818111156103f65783604083870101525b50601f01601f1916929092016040019392505050565b60208082526023908201527f45524332303a207472616e7366657220746f20746865207a65726f206164647260408201526265737360e81b606082015260800190565b6020808252601b908201527f536166654d6174683a206164646974696f6e206f766572666c6f770000000000604082015260600190565b90815260200190565b60ff91909116815260200190565b600082198211156104b0576104b0610507565b500190565b6000828210156104c7576104c7610507565b500390565b6002810460018216806104e057607f821691505b6020821081141561050157634e487b7160e01b600052602260045260246000fd5b50919050565b634e487b7160e01b600052601160045260246000fdfe45524332303a207472616e7366657220616d6f756e7420657863656564732062616c616e6365a2646970667358221220de5478d19f8bd97783f56762e7571482e98e1b5df28289c29621a1b652678a5164736f6c63430008000033",
    "sourcePath": "/Users/christophercruttenden/openzeppelin-contracts/contracts/token/ERC201/ERC201.sol",
    "compiler": {
        "name": "solc",
        "version": "0.8.0+commit.c7dfd78e"
    },
    "functionHashes": {
        "balanceOf(address)": "70a08231",
        "decimals()": "313ce567",
        "name()": "06fdde03",
        "symbol()": "95d89b41",
        "totalSupply()": "18160ddd",
        "transfer(address,uint256)": "a9059cbb"
    },
    "gasEstimates": {
        "creation": {
            "codeDepositCost": "280200",
            "executionCost": "infinite",
            "totalCost": "infinite"
        },
        "external": {
            "balanceOf(address)": "infinite",
            "decimals()": "1068",
            "name()": "infinite",
            "symbol()": "infinite",
            "totalSupply()": "1028",
            "transfer(address,uint256)": "infinite"
        },
        "internal": {
            "_beforeTokenTransfer(address,address,uint256)": "15",
            "_burn(uint256)": "infinite",
            "_mint(address,uint256)": "infinite",
            "_transfer(address,address,uint256)": "infinite",
            "_transferFrom(address,address,uint256)": "infinite"
        }
    }
}