{
    "contractName": "SimpleToken",
    "abi": [
        {
            "inputs": [
                {
                    "internalType": "uint256",
                    "name": "tokens",
                    "type": "uint256"
                }
            ],
            "stateMutability": "nonpayable",
            "type": "constructor"
        },
        {
            "anonymous": false,
            "inputs": [
                {
                    "indexed": true,
                    "internalType": "address",
                    "name": "from",
                    "type": "address"
                },
                {
                    "indexed": true,
                    "internalType": "address",
                    "name": "to",
                    "type": "address"
                },
                {
                    "indexed": false,
                    "internalType": "uint256",
                    "name": "value",
                    "type": "uint256"
                }
            ],
            "name": "Transfer",
            "type": "event"
        },
        {
            "anonymous": false,
            "inputs": [
                {
                    "indexed": true,
                    "internalType": "address",
                    "name": "account",
                    "type": "address"
                }
            ],
            "name": "TrusteeAdded",
            "type": "event"
        },
        {
            "anonymous": false,
            "inputs": [
                {
                    "indexed": true,
                    "internalType": "address",
                    "name": "account",
                    "type": "address"
                }
            ],
            "name": "TrusteeRemoved",
            "type": "event"
        },
        {
            "inputs": [
                {
                    "internalType": "address",
                    "name": "account",
                    "type": "address"
                }
            ],
            "name": "addTrustee",
            "outputs": [],
            "stateMutability": "nonpayable",
            "type": "function"
        },
        {
            "inputs": [
                {
                    "internalType": "address",
                    "name": "account",
                    "type": "address"
                }
            ],
            "name": "balanceOf",
            "outputs": [
                {
                    "internalType": "uint256",
                    "name": "",
                    "type": "uint256"
                }
            ],
            "stateMutability": "view",
            "type": "function"
        },
        {
            "inputs": [
                {
                    "internalType": "address",
                    "name": "account",
                    "type": "address"
                }
            ],
            "name": "changeManager",
            "outputs": [],
            "stateMutability": "nonpayable",
            "type": "function"
        },
        {
            "inputs": [],
            "name": "decimals",
            "outputs": [
                {
                    "internalType": "uint8",
                    "name": "",
                    "type": "uint8"
                }
            ],
            "stateMutability": "view",
            "type": "function"
        },
        {
            "inputs": [
                {
                    "internalType": "address",
                    "name": "account",
                    "type": "address"
                }
            ],
            "name": "isTrustee",
            "outputs": [
                {
                    "internalType": "bool",
                    "name": "",
                    "type": "bool"
                }
            ],
            "stateMutability": "view",
            "type": "function"
        },
        {
            "inputs": [],
            "name": "manager",
            "outputs": [
                {
                    "internalType": "address",
                    "name": "",
                    "type": "address"
                }
            ],
            "stateMutability": "view",
            "type": "function"
        },
        {
            "inputs": [
                {
                    "internalType": "address",
                    "name": "account",
                    "type": "address"
                },
                {
                    "internalType": "uint256",
                    "name": "amount",
                    "type": "uint256"
                }
            ],
            "name": "mint",
            "outputs": [
                {
                    "internalType": "bool",
                    "name": "",
                    "type": "bool"
                }
            ],
            "stateMutability": "nonpayable",
            "type": "function"
        },
        {
            "inputs": [],
            "name": "name",
            "outputs": [
                {
                    "internalType": "string",
                    "name": "",
                    "type": "string"
                }
            ],
            "stateMutability": "view",
            "type": "function"
        },
        {
            "inputs": [],
            "name": "renounceTrustee",
            "outputs": [],
            "stateMutability": "nonpayable",
            "type": "function"
        },
        {
            "inputs": [],
            "name": "symbol",
            "outputs": [
                {
                    "internalType": "string",
                    "name": "",
                    "type": "string"
                }
            ],
            "stateMutability": "view",
            "type": "function"
        },
        {
            "inputs": [],
            "name": "totalSupply",
            "outputs": [
                {
                    "internalType": "uint256",
                    "name": "",
                    "type": "uint256"
                }
            ],
            "stateMutability": "view",
            "type": "function"
        },
        {
            "inputs": [
                {
                    "internalType": "address",
                    "name": "recipient",
                    "type": "address"
                },
                {
                    "internalType": "uint256",
                    "name": "amount",
                    "type": "uint256"
                }
            ],
            "name": "transfer",
            "outputs": [
                {
                    "internalType": "bool",
                    "name": "",
                    "type": "bool"
                }
            ],
            "stateMutability": "nonpayable",
            "type": "function"
        }
    ],
    "bytecode": "60806040523480156200001157600080fd5b506040516200143a3803806200143a83398101604081905262000034916200049e565b6040518060400160405280600b81526020016a29b4b6b83632aa37b5b2b760a91b8152506040518060400160405280600381526020016253494d60e81b815250601282600390805190602001906200008e929190620003f8565b508151620000a4906004906020850190620003f8565b506005805460ff191660ff8316179055620000be62000162565b600180546001600160a01b0319166001600160a01b039290921691909117905550620000f79150620000f1905062000162565b62000166565b6200010162000162565b600780546001600160a01b0319166001600160a01b03929092169190911790556200015b6200012f62000162565b62000139620001b8565b620001499060ff16600a62000656565b6200015590846200073e565b620001c1565b50620007b3565b3390565b62000181816006620002ba60201b620003ba1790919060201c565b6040516001600160a01b038216907f136b04e34cc22b4b7473adab82a20348a3f0600d6820f08c1a0543e5e9d5bff990600090a250565b60055460ff1690565b6001600160a01b038216620001f35760405162461bcd60e51b8152600401620001ea90620005ae565b60405180910390fd5b620001ff60016200030b565b506200020e600083836200036d565b6200022a816002546200037260201b620004061790919060201c565b6002556001600160a01b038216600090815260208181526040909120546200025d9183906200040662000372821b17901c565b6001600160a01b0383166000818152602081905260408082209390935591519091907fddf252ad1be2c89b69c2b068fc378daa952ba7f163c4a11628f55a4df523b3ef90620002ae908590620005e5565b60405180910390a35050565b620002c68282620003ad565b15620002e65760405162461bcd60e51b8152600401620001ea90620004b7565b6001600160a01b0316600090815260209190915260409020805460ff19166001179055565b600060ff82166200035b576001546001600160a01b03166200032c62000162565b6001600160a01b031614620003555760405162461bcd60e51b8152600401620001ea9062000567565b62000364565b50600062000368565b5060015b919050565b505050565b600080620003818385620005ee565b905083811015620003a65760405162461bcd60e51b8152600401620001ea90620004ee565b9392505050565b60006001600160a01b038216620003d85760405162461bcd60e51b8152600401620001ea9062000525565b506001600160a01b03166000908152602091909152604090205460ff1690565b828054620004069062000760565b90600052602060002090601f0160209004810192826200042a576000855562000475565b82601f106200044557805160ff191683800117855562000475565b8280016001018555821562000475579182015b828111156200047557825182559160200191906001019062000458565b506200048392915062000487565b5090565b5b8082111562000483576000815560010162000488565b600060208284031215620004b0578081fd5b5051919050565b6020808252601f908201527f526f6c65733a206163636f756e7420616c72656164792068617320726f6c6500604082015260600190565b6020808252601b908201527f536166654d6174683a206164646974696f6e206f766572666c6f770000000000604082015260600190565b60208082526022908201527f526f6c65733a206163636f756e7420697320746865207a65726f206164647265604082015261737360f01b606082015260800190565b60208082526027908201527f4f6e6c7920746865206d616e616765722063616e206d616b65207468697320616040820152661c1c1c9bdd985b60ca1b606082015260800190565b6020808252601f908201527f45524332303a206d696e7420746f20746865207a65726f206164647265737300604082015260600190565b90815260200190565b600082198211156200060457620006046200079d565b500190565b80825b60018086116200061d57506200064d565b8187048211156200063257620006326200079d565b808616156200064057918102915b9490941c9380026200060c565b94509492505050565b6000620003a660001984846000826200067257506001620003a6565b816200068157506000620003a6565b81600181146200069a5760028114620006a557620006d9565b6001915050620003a6565b60ff841115620006b957620006b96200079d565b6001841b915084821115620006d257620006d26200079d565b50620003a6565b5060208310610133831016604e8410600b841016171562000711575081810a838111156200070b576200070b6200079d565b620003a6565b62000720848484600162000609565b8086048211156200073557620007356200079d565b02949350505050565b60008160001904831182151516156200075b576200075b6200079d565b500290565b6002810460018216806200077557607f821691505b602082108114156200079757634e487b7160e01b600052602260045260246000fd5b50919050565b634e487b7160e01b600052601160045260246000fd5b610c7780620007c36000396000f3fe608060405234801561001057600080fd5b50600436106100b45760003560e01c806374f7e5f41161007157806374f7e5f41461014957806395d89b4114610153578063a3fbbaae1461015b578063a9059cbb1461016e578063c784cd1714610181578063dc78ac1c14610194576100b4565b806306fdde03146100b957806318160ddd146100d7578063313ce567146100ec57806340c10f1914610101578063481c6a751461012157806370a0823114610136575b600080fd5b6100c16101a7565b6040516100ce919061087f565b60405180910390f35b6100df610239565b6040516100ce9190610b84565b6100f461023f565b6040516100ce9190610b8d565b61011461010f366004610837565b610248565b6040516100ce9190610874565b61012961028d565b6040516100ce9190610860565b6100df61014436600461081d565b61029c565b6101516102bb565b005b6100c16102cd565b61015161016936600461081d565b6102dc565b61011461017c366004610837565b610368565b61011461018f36600461081d565b610374565b6101516101a236600461081d565b610387565b6060600380546101b690610bca565b80601f01602080910402602001604051908101604052809291908181526020018280546101e290610bca565b801561022f5780601f106102045761010080835404028352916020019161022f565b820191906000526020600020905b81548152906001019060200180831161021257829003601f168201915b5050505050905090565b60025490565b60055460ff1690565b600061025561018f61043c565b61027a5760405162461bcd60e51b815260040161027190610b32565b60405180910390fd5b6102848383610440565b50600192915050565b6001546001600160a01b031690565b6001600160a01b0381166000908152602081905260409020545b919050565b6102cb6102c661043c565b61050b565b565b6060600480546101b690610bca565b6007546001600160a01b038281169116141561030a5760405162461bcd60e51b815260040161027190610983565b6001600160a01b0381166103305760405162461bcd60e51b8152600401610271906109ef565b61033981610374565b610346576103468161057b565b600780546001600160a01b0319166001600160a01b0392909216919091179055565b600061028483836105bd565b60006103816006836106de565b92915050565b61039261018f61043c565b6103ae5760405162461bcd60e51b815260040161027190610b32565b6103b78161057b565b50565b6103c482826106de565b156103e15760405162461bcd60e51b815260040161027190610915565b6001600160a01b0316600090815260209190915260409020805460ff19166001179055565b6000806104138385610b9b565b9050838110156104355760405162461bcd60e51b81526004016102719061094c565b9392505050565b3390565b6001600160a01b0382166104665760405162461bcd60e51b815260040161027190610afb565b6104706001610726565b5061047d6000838361077f565b60025461048a9082610406565b6002556001600160a01b0382166000908152602081905260409020546104b09082610406565b6001600160a01b0383166000818152602081905260408082209390935591519091907fddf252ad1be2c89b69c2b068fc378daa952ba7f163c4a11628f55a4df523b3ef906104ff908590610b84565b60405180910390a35050565b6007546001600160a01b03828116911614156105395760405162461bcd60e51b8152600401610271906109ba565b610544600682610784565b6040516001600160a01b038216907ff624904bce005956e80ff2b94673fc173c8a2e6fae6d13ae077db8197e6253b590600090a250565b6105866006826103ba565b6040516001600160a01b038216907f136b04e34cc22b4b7473adab82a20348a3f0600d6820f08c1a0543e5e9d5bff990600090a250565b6001600160a01b0382166105e35760405162461bcd60e51b8152600401610271906108d2565b6105f56105ee61043c565b838361077f565b61063e81604051806060016040528060268152602001610c1c6026913960008061061d61043c565b6001600160a01b0316815260208101919091526040016000205491906107cc565b60008061064961043c565b6001600160a01b039081168252602080830193909352604091820160009081209490945585168352908290529020546106829082610406565b6001600160a01b0383166000818152602081905260409020919091556106a661043c565b6001600160a01b03167fddf252ad1be2c89b69c2b068fc378daa952ba7f163c4a11628f55a4df523b3ef836040516104ff9190610b84565b60006001600160a01b0382166107065760405162461bcd60e51b815260040161027190610a72565b506001600160a01b03166000908152602091909152604090205460ff1690565b600060ff821661076f576001546001600160a01b031661074461043c565b6001600160a01b03161461076a5760405162461bcd60e51b815260040161027190610ab4565b610777565b5060006102b6565b506001919050565b505050565b61078e82826106de565b6107aa5760405162461bcd60e51b815260040161027190610a31565b6001600160a01b0316600090815260209190915260409020805460ff19169055565b600081848411156107f05760405162461bcd60e51b8152600401610271919061087f565b5060006107fd8486610bb3565b95945050505050565b80356001600160a01b03811681146102b657600080fd5b60006020828403121561082e578081fd5b61043582610806565b60008060408385031215610849578081fd5b61085283610806565b946020939093013593505050565b6001600160a01b0391909116815260200190565b901515815260200190565b6000602080835283518082850152825b818110156108ab5785810183015185820160400152820161088f565b818111156108bc5783604083870101525b50601f01601f1916929092016040019392505050565b60208082526023908201527f45524332303a207472616e7366657220746f20746865207a65726f206164647260408201526265737360e81b606082015260800190565b6020808252601f908201527f526f6c65733a206163636f756e7420616c72656164792068617320726f6c6500604082015260600190565b6020808252601b908201527f536166654d6174683a206164646974696f6e206f766572666c6f770000000000604082015260600190565b6020808252601a908201527f4163636f756e7420697320616c7265616479206d616e61676572000000000000604082015260600190565b6020808252818101527f43616e6e6f742072656d6f7665206d616e616765722061732074727573746565604082015260600190565b60208082526022908201527f43616e6e6f7420736574206d616e6167657220746f205a65726f206164647265604082015261737360f01b606082015260800190565b60208082526021908201527f526f6c65733a206163636f756e7420646f6573206e6f74206861766520726f6c6040820152606560f81b606082015260800190565b60208082526022908201527f526f6c65733a206163636f756e7420697320746865207a65726f206164647265604082015261737360f01b606082015260800190565b60208082526027908201527f4f6e6c7920746865206d616e616765722063616e206d616b65207468697320616040820152661c1c1c9bdd985b60ca1b606082015260800190565b6020808252601f908201527f45524332303a206d696e7420746f20746865207a65726f206164647265737300604082015260600190565b60208082526032908201527f54727573746565526f6c653a2063616c6c657220646f6573206e6f74206861766040820152716520746865205472757374656520726f6c6560701b606082015260800190565b90815260200190565b60ff91909116815260200190565b60008219821115610bae57610bae610c05565b500190565b600082821015610bc557610bc5610c05565b500390565b600281046001821680610bde57607f821691505b60208210811415610bff57634e487b7160e01b600052602260045260246000fd5b50919050565b634e487b7160e01b600052601160045260246000fdfe45524332303a207472616e7366657220616d6f756e7420657863656564732062616c616e6365a264697066735822122030982e5b5b1bb9e911b24e056460a3ab8a344059e3ead8c45b3a24502618197364736f6c63430008000033",
    "sourcePath": "/Users/christophercruttenden/openzeppelin-contracts/contracts/examples/SimpleLegitToken.sol",
    "compiler": {
        "name": "solc",
        "version": "0.8.0+commit.c7dfd78e"
    },
    "functionHashes": {
        "addTrustee(address)": "dc78ac1c",
        "balanceOf(address)": "70a08231",
        "changeManager(address)": "a3fbbaae",
        "decimals()": "313ce567",
        "isTrustee(address)": "c784cd17",
        "manager()": "481c6a75",
        "mint(address,uint256)": "40c10f19",
        "name()": "06fdde03",
        "renounceTrustee()": "74f7e5f4",
        "symbol()": "95d89b41",
        "totalSupply()": "18160ddd",
        "transfer(address,uint256)": "a9059cbb"
    },
    "gasEstimates": {
        "creation": {
            "codeDepositCost": "638200",
            "executionCost": "infinite",
            "totalCost": "infinite"
        },
        "external": {
            "addTrustee(address)": "infinite",
            "balanceOf(address)": "infinite",
            "changeManager(address)": "infinite",
            "decimals()": "1091",
            "isTrustee(address)": "1459",
            "manager()": "1159",
            "mint(address,uint256)": "infinite",
            "name()": "infinite",
            "renounceTrustee()": "24143",
            "symbol()": "infinite",
            "totalSupply()": "1051",
            "transfer(address,uint256)": "infinite"
        }
    }
}