{
    "contractName": "SimpleToken",
    "abi": [
        {
            "inputs": [
                {
                    "internalType": "uint256",
                    "name": "tokens",
                    "type": "uint256"
                }
            ],
            "stateMutability": "nonpayable",
            "type": "constructor"
        },
        {
            "anonymous": false,
            "inputs": [
                {
                    "indexed": true,
                    "internalType": "address",
                    "name": "from",
                    "type": "address"
                },
                {
                    "indexed": true,
                    "internalType": "address",
                    "name": "to",
                    "type": "address"
                },
                {
                    "indexed": false,
                    "internalType": "uint256",
                    "name": "value",
                    "type": "uint256"
                }
            ],
            "name": "Transfer",
            "type": "event"
        },
        {
            "anonymous": false,
            "inputs": [
                {
                    "indexed": true,
                    "internalType": "address",
                    "name": "account",
                    "type": "address"
                }
            ],
            "name": "TrusteeAdded",
            "type": "event"
        },
        {
            "anonymous": false,
            "inputs": [
                {
                    "indexed": true,
                    "internalType": "address",
                    "name": "account",
                    "type": "address"
                }
            ],
            "name": "TrusteeRemoved",
            "type": "event"
        },
        {
            "inputs": [
                {
                    "internalType": "address",
                    "name": "account",
                    "type": "address"
                }
            ],
            "name": "addTrustee",
            "outputs": [],
            "stateMutability": "nonpayable",
            "type": "function"
        },
        {
            "inputs": [
                {
                    "internalType": "address",
                    "name": "account",
                    "type": "address"
                }
            ],
            "name": "balanceOf",
            "outputs": [
                {
                    "internalType": "uint256",
                    "name": "",
                    "type": "uint256"
                }
            ],
            "stateMutability": "view",
            "type": "function"
        },
        {
            "inputs": [
                {
                    "internalType": "address",
                    "name": "account",
                    "type": "address"
                }
            ],
            "name": "changeManager",
            "outputs": [],
            "stateMutability": "nonpayable",
            "type": "function"
        },
        {
            "inputs": [],
            "name": "decimals",
            "outputs": [
                {
                    "internalType": "uint8",
                    "name": "",
                    "type": "uint8"
                }
            ],
            "stateMutability": "view",
            "type": "function"
        },
        {
            "inputs": [
                {
                    "internalType": "address",
                    "name": "account",
                    "type": "address"
                }
            ],
            "name": "isTrustee",
            "outputs": [
                {
                    "internalType": "bool",
                    "name": "",
                    "type": "bool"
                }
            ],
            "stateMutability": "view",
            "type": "function"
        },
        {
            "inputs": [
                {
                    "internalType": "address",
                    "name": "account",
                    "type": "address"
                },
                {
                    "internalType": "uint256",
                    "name": "amount",
                    "type": "uint256"
                }
            ],
            "name": "mint",
            "outputs": [
                {
                    "internalType": "bool",
                    "name": "",
                    "type": "bool"
                }
            ],
            "stateMutability": "nonpayable",
            "type": "function"
        },
        {
            "inputs": [],
            "name": "name",
            "outputs": [
                {
                    "internalType": "string",
                    "name": "",
                    "type": "string"
                }
            ],
            "stateMutability": "view",
            "type": "function"
        },
        {
            "inputs": [
                {
                    "internalType": "address",
                    "name": "account",
                    "type": "address"
                }
            ],
            "name": "renounceTrustee",
            "outputs": [],
            "stateMutability": "nonpayable",
            "type": "function"
        },
        {
            "inputs": [],
            "name": "symbol",
            "outputs": [
                {
                    "internalType": "string",
                    "name": "",
                    "type": "string"
                }
            ],
            "stateMutability": "view",
            "type": "function"
        },
        {
            "inputs": [],
            "name": "totalSupply",
            "outputs": [
                {
                    "internalType": "uint256",
                    "name": "",
                    "type": "uint256"
                }
            ],
            "stateMutability": "view",
            "type": "function"
        },
        {
            "inputs": [
                {
                    "internalType": "address",
                    "name": "recipient",
                    "type": "address"
                },
                {
                    "internalType": "uint256",
                    "name": "amount",
                    "type": "uint256"
                }
            ],
            "name": "transfer",
            "outputs": [
                {
                    "internalType": "bool",
                    "name": "",
                    "type": "bool"
                }
            ],
            "stateMutability": "nonpayable",
            "type": "function"
        }
    ],
    "bytecode": "60806040523480156200001157600080fd5b506040516200129638038062001296833981016040819052620000349162000400565b604080518082018252600b81526a29b4b6b83632aa37b5b2b760a91b60208083019182528351808501909452600384526253494d60e81b9084015281519192916012916200008691600291906200035a565b5081516200009c9060039060208501906200035a565b506004805460ff191660ff9290921691909117905550620000c89050620000c262000133565b62000137565b620000d262000133565b600680546001600160a01b0319166001600160a01b03929092169190911790556200012c6200010062000133565b6200010a62000189565b6200011a9060ff16600a62000571565b62000126908462000659565b62000192565b50620006ce565b3390565b620001528160056200027e60201b620003951790919060201c565b6040516001600160a01b038216907f136b04e34cc22b4b7473adab82a20348a3f0600d6820f08c1a0543e5e9d5bff990600090a250565b60045460ff1690565b6001600160a01b038216620001c45760405162461bcd60e51b8152600401620001bb90620004c9565b60405180910390fd5b620001d260008383620002cf565b620001ee81600154620002d460201b620003e11790919060201c565b6001556001600160a01b0382166000908152602081815260409091205462000221918390620003e1620002d4821b17901c565b6001600160a01b0383166000818152602081905260408082209390935591519091907fddf252ad1be2c89b69c2b068fc378daa952ba7f163c4a11628f55a4df523b3ef906200027290859062000500565b60405180910390a35050565b6200028a82826200030f565b15620002aa5760405162461bcd60e51b8152600401620001bb9062000419565b6001600160a01b0316600090815260209190915260409020805460ff19166001179055565b505050565b600080620002e3838562000509565b905083811015620003085760405162461bcd60e51b8152600401620001bb9062000450565b9392505050565b60006001600160a01b0382166200033a5760405162461bcd60e51b8152600401620001bb9062000487565b506001600160a01b03166000908152602091909152604090205460ff1690565b82805462000368906200067b565b90600052602060002090601f0160209004810192826200038c5760008555620003d7565b82601f10620003a757805160ff1916838001178555620003d7565b82800160010185558215620003d7579182015b82811115620003d7578251825591602001919060010190620003ba565b50620003e5929150620003e9565b5090565b5b80821115620003e55760008155600101620003ea565b60006020828403121562000412578081fd5b5051919050565b6020808252601f908201527f526f6c65733a206163636f756e7420616c72656164792068617320726f6c6500604082015260600190565b6020808252601b908201527f536166654d6174683a206164646974696f6e206f766572666c6f770000000000604082015260600190565b60208082526022908201527f526f6c65733a206163636f756e7420697320746865207a65726f206164647265604082015261737360f01b606082015260800190565b6020808252601f908201527f45524332303a206d696e7420746f20746865207a65726f206164647265737300604082015260600190565b90815260200190565b600082198211156200051f576200051f620006b8565b500190565b80825b600180861162000538575062000568565b8187048211156200054d576200054d620006b8565b808616156200055b57918102915b9490941c93800262000527565b94509492505050565b60006200030860001984846000826200058d5750600162000308565b816200059c5750600062000308565b8160018114620005b55760028114620005c057620005f4565b600191505062000308565b60ff841115620005d457620005d4620006b8565b6001841b915084821115620005ed57620005ed620006b8565b5062000308565b5060208310610133831016604e8410600b84101617156200062c575081810a83811115620006265762000626620006b8565b62000308565b6200063b848484600162000524565b808604821115620006505762000650620006b8565b02949350505050565b6000816000190483118215151615620006765762000676620006b8565b500290565b6002810460018216806200069057607f821691505b60208210811415620006b257634e487b7160e01b600052602260045260246000fd5b50919050565b634e487b7160e01b600052601160045260246000fd5b610bb880620006de6000396000f3fe608060405234801561001057600080fd5b50600436106100a95760003560e01c806370a082311161007157806370a082311461012b57806395d89b411461013e578063a3fbbaae14610146578063a9059cbb14610159578063c784cd171461016c578063dc78ac1c1461017f576100a9565b806306fdde03146100ae57806318160ddd146100cc578063313ce567146100e15780633723451c146100f657806340c10f191461010b575b600080fd5b6100b6610192565b6040516100c39190610807565b60405180910390f35b6100d4610224565b6040516100c39190610ac5565b6100e961022a565b6040516100c39190610ace565b6101096101043660046107b9565b610233565b005b61011e6101193660046107d3565b61023f565b6040516100c391906107fc565b6100d46101393660046107b9565b610284565b6100b66102a3565b6101096101543660046107b9565b6102b2565b61011e6101673660046107d3565b61033e565b61011e61017a3660046107b9565b610352565b61010961018d3660046107b9565b610365565b6060600280546101a190610b0b565b80601f01602080910402602001604051908101604052809291908181526020018280546101cd90610b0b565b801561021a5780601f106101ef5761010080835404028352916020019161021a565b820191906000526020600020905b8154815290600101906020018083116101fd57829003601f168201915b5050505050905090565b60015490565b60045460ff1690565b61023c81610417565b50565b600061024c61017a6104d1565b6102715760405162461bcd60e51b815260040161026890610a73565b60405180910390fd5b61027b83836104d5565b50600192915050565b6001600160a01b0381166000908152602081905260409020545b919050565b6060600380546101a190610b0b565b6006546001600160a01b03828116911614156102e05760405162461bcd60e51b81526004016102689061090b565b6001600160a01b0381166103065760405162461bcd60e51b815260040161026890610977565b61030f81610352565b61031c5761031c81610595565b600680546001600160a01b0319166001600160a01b0392909216919091179055565b600061027b61034b6104d1565b84846105d7565b600061035f6005836106d3565b92915050565b61037061017a6104d1565b61038c5760405162461bcd60e51b815260040161026890610a73565b61023c81610595565b61039f82826106d3565b156103bc5760405162461bcd60e51b81526004016102689061089d565b6001600160a01b0316600090815260209190915260409020805460ff19166001179055565b6000806103ee8385610adc565b9050838110156104105760405162461bcd60e51b8152600401610268906108d4565b9392505050565b6006546001600160a01b03828116911614156104455760405162461bcd60e51b815260040161026890610942565b6006546001600160a01b03166104596104d1565b6001600160a01b031614806104865750806001600160a01b031661047b6104d1565b6001600160a01b0316145b61048f57600080fd5b61049a60058261071b565b6040516001600160a01b038216907ff624904bce005956e80ff2b94673fc173c8a2e6fae6d13ae077db8197e6253b590600090a250565b3390565b6001600160a01b0382166104fb5760405162461bcd60e51b815260040161026890610a3c565b61050760008383610763565b60015461051490826103e1565b6001556001600160a01b03821660009081526020819052604090205461053a90826103e1565b6001600160a01b0383166000818152602081905260408082209390935591519091907fddf252ad1be2c89b69c2b068fc378daa952ba7f163c4a11628f55a4df523b3ef90610589908590610ac5565b60405180910390a35050565b6105a0600582610395565b6040516001600160a01b038216907f136b04e34cc22b4b7473adab82a20348a3f0600d6820f08c1a0543e5e9d5bff990600090a250565b6001600160a01b0382166105fd5760405162461bcd60e51b81526004016102689061085a565b610608838383610763565b61064581604051806060016040528060268152602001610b5d602691396001600160a01b0386166000908152602081905260409020549190610768565b6001600160a01b03808516600090815260208190526040808220939093559084168152205461067490826103e1565b6001600160a01b0380841660008181526020819052604090819020939093559151908516907fddf252ad1be2c89b69c2b068fc378daa952ba7f163c4a11628f55a4df523b3ef906106c6908590610ac5565b60405180910390a3505050565b60006001600160a01b0382166106fb5760405162461bcd60e51b8152600401610268906109fa565b506001600160a01b03166000908152602091909152604090205460ff1690565b61072582826106d3565b6107415760405162461bcd60e51b8152600401610268906109b9565b6001600160a01b0316600090815260209190915260409020805460ff19169055565b505050565b6000818484111561078c5760405162461bcd60e51b81526004016102689190610807565b5060006107998486610af4565b95945050505050565b80356001600160a01b038116811461029e57600080fd5b6000602082840312156107ca578081fd5b610410826107a2565b600080604083850312156107e5578081fd5b6107ee836107a2565b946020939093013593505050565b901515815260200190565b6000602080835283518082850152825b8181101561083357858101830151858201604001528201610817565b818111156108445783604083870101525b50601f01601f1916929092016040019392505050565b60208082526023908201527f45524332303a207472616e7366657220746f20746865207a65726f206164647260408201526265737360e81b606082015260800190565b6020808252601f908201527f526f6c65733a206163636f756e7420616c72656164792068617320726f6c6500604082015260600190565b6020808252601b908201527f536166654d6174683a206164646974696f6e206f766572666c6f770000000000604082015260600190565b6020808252601a908201527f4163636f756e7420697320616c7265616479206d616e61676572000000000000604082015260600190565b6020808252818101527f43616e6e6f742072656d6f7665206d616e616765722061732074727573746565604082015260600190565b60208082526022908201527f43616e6e6f7420736574206d616e6167657220746f205a65726f206164647265604082015261737360f01b606082015260800190565b60208082526021908201527f526f6c65733a206163636f756e7420646f6573206e6f74206861766520726f6c6040820152606560f81b606082015260800190565b60208082526022908201527f526f6c65733a206163636f756e7420697320746865207a65726f206164647265604082015261737360f01b606082015260800190565b6020808252601f908201527f45524332303a206d696e7420746f20746865207a65726f206164647265737300604082015260600190565b60208082526032908201527f54727573746565526f6c653a2063616c6c657220646f6573206e6f74206861766040820152716520746865205472757374656520726f6c6560701b606082015260800190565b90815260200190565b60ff91909116815260200190565b60008219821115610aef57610aef610b46565b500190565b600082821015610b0657610b06610b46565b500390565b600281046001821680610b1f57607f821691505b60208210811415610b4057634e487b7160e01b600052602260045260246000fd5b50919050565b634e487b7160e01b600052601160045260246000fdfe45524332303a207472616e7366657220616d6f756e7420657863656564732062616c616e6365a26469706673582212200dceb52417c853a46b7161a3a64895dbe1eadb8786a07b8d497fab1524d05f6564736f6c63430008000033",
    "sourcePath": "/Users/christophercruttenden/openzeppelin-contracts/contracts/examples/Simple201.sol",
    "compiler": {
        "name": "solc",
        "version": "0.8.0+commit.c7dfd78e"
    },
    "functionHashes": {
        "addTrustee(address)": "dc78ac1c",
        "balanceOf(address)": "70a08231",
        "changeManager(address)": "a3fbbaae",
        "decimals()": "313ce567",
        "isTrustee(address)": "c784cd17",
        "mint(address,uint256)": "40c10f19",
        "name()": "06fdde03",
        "renounceTrustee(address)": "3723451c",
        "symbol()": "95d89b41",
        "totalSupply()": "18160ddd",
        "transfer(address,uint256)": "a9059cbb"
    },
    "gasEstimates": {
        "creation": {
            "codeDepositCost": "600000",
            "executionCost": "infinite",
            "totalCost": "infinite"
        },
        "external": {
            "addTrustee(address)": "infinite",
            "balanceOf(address)": "infinite",
            "changeManager(address)": "infinite",
            "decimals()": "1091",
            "isTrustee(address)": "1459",
            "mint(address,uint256)": "infinite",
            "name()": "infinite",
            "renounceTrustee(address)": "infinite",
            "symbol()": "infinite",
            "totalSupply()": "1051",
            "transfer(address,uint256)": "infinite"
        }
    }
}